S0160000454B5F5241344D325F626C696E6B2E737265636A
S31500000000A0040020F108000061070000ED080000D0
S31500000010ED080000ED080000ED080000ED08000006
S31500000020000000000000000000000000ED080000D5
S31500000030ED08000000000000ED080000ED080000DB
S31500000040FFFFFFFFFFFFFFFFFFFFFFFFFFFFFFFFBA
S31500000050FFFFFFFFFFFFFFFFFFFFFFFFFFFFFFFFAA
S31500000060FFFFFFFFFFFFFFFFFFFFFFFFFFFFFFFF9A
S31500000070FFFFFFFFFFFFFFFFFFFFFFFFFFFFFFFF8A
S3150000008010B5054C237833B9044B13B1044800E08E
S3150000009000BF0123237010BD2800002000000000CF
S315000000A0DC0B000008B5034B1BB10349034800E015
S315000000B000BF08BD000000002C000020DC0B000083
S315000000C010B52D4C2BE040F20441204600F09EF87E
S315000000D0024698BB40F20541204600F097F898BBCF
S315000000E04FF47A71084600F007FB012240F20F41F7
S315000000F0204600F08BF868BB012240F204412046FE
S3150000010000F084F860BB012240F20541204600F071
S315000001107DF858BB4FF47A71084600F0EDFA0022DC
S3150000012040F20F41204600F071F802460028CAD07E
S315000001301321124B124A134800F0D6FA15210F4B21
S315000001400F4A104800F0D0FA17210C4B0C4A0D4804
S3150000015000F0CAFA1C21094B094A0A4800F0C4FA01
S315000001601E21064B064A074800F0BEFA2021034B23
S31500000170034A044800F0B8FA44000020540A00007C
S31500000180800A00006C0A0000022800D07047024B6B
S315000001900248596800F07AB98C0A00004400002031
S315000001A008B5FFF78DFF002008BD00BF00220346FB
S315000001B010461A60704700BF0B0A10B41B01064CAC
S315000001C053FA81F154F821300020C3F340035DF85F
S315000001D0044B1370704700BF00080840090A490124
S315000001E001F1804101F500214B6800201380704722
S315000001F0090A490123EA020C01F180411A4001F57E
S31500000200002142EA0C4200208A6070470123C8B2EE
S3150000021083404AB91A040B0A5B0103F1804303F5D4
S31500000220002300209A6070479AB2F4E7090A490150
S3150000023001F1804101F5002110B40C6802EA030CBB
S315000002404CEA040C62EA030202EA0C0200205DF8A2
S31500000250044B0A60704700BF090A490101F1804159
S3150000026001F500214B680020C3F30F43138070474C
S31500000270012310B44FEA112C4FEA4C1C0CF1804CB0
S315000002800CF5002CDCF80440C9B203FA01F18BB27C
S3150000029001EA1441C91AB1FA81F1490900205DF851
S315000002A0044B1170704700BF090A490123EA020C8A
S315000002B001F180411A4001F5002142EA0C4200207A
S315000002C0CA607047012A14D04FF480300B0A5B01D4
S315000002D003F1804303F5002310B4CAB2DC6800FAC8
S315000002E002F22243120C120400205DF8044BDA607D
S315000002F070470B0A5B0103F1804303F50023D868BE
S31500000300C9B28A40024392B20020DA60704700BF49
S315000003102DE9F84F0388002B3DD007464FF0000823
S31500000320DFF8A4A040F202427B684FEAC8055919DB
S315000003308988002491424FF00109224E09D00134E8
S31500000340032C23D07B6836F8022B591989889142F1
S31500000350F5D15B5909FA04F203F0B853B3F1807F83
S315000003605FFA82FB19D09AF8BB341A42E7D0012013
S3150000037000F092FA9AF8BB34012023EA0B0B8AF8B4
S31500000380BBB4013400F058FA032CDBD13B8808F1EA
S3150000039001084345C6D8BDE8F88F9AF8BB2409FA88
S315000003A004F313425FFA83FBC9D1012000F074FA0B
S315000003B09AF8BB3401204BEA030B8AF8BBB400F071
S315000003C03BFABCE70E0B000000E00140F8B504461E
S315000003D0FFF79EFFEFF31082012383F31088284E68
S315000003E033681BB92749CB704023CB703368013380
S315000003F0336082F3108823887BB3626803F1FF3E83
S315000004001FFA8EFE02F108011F4C01EBCE0E08E02A
S31500000410D2B21B0113448E450A4644F823001CD071
S3150000042008311068928810F4803F4FEA1223EFD00B
S31500000430130AD2B202EB031C54F82C701B011344AE
S3150000044020F480356FF310478E4544F82C700A4629
S3150000045044F82C5044F82300E2D1EFF31082012334
S3150000046083F31088336813B13368013B3360336814
S315000004701BB980200349CB70C87082F31088F8BD81
S315000004808C000020000D08400008084008B5034B0A
S3150000049003600846FFF79AFF002008BD54524F50EC
S315000004A008B50846FFF792FF002008BD70B5012683
S315000004B084B002AB68460C4615460193ADF8006061
S315000004C0ADF80C100292FFF723FFEFF3108286F3CC
S315000004D010881D490B681BB940261C48C370C6709E
S315000004E00B6801330B6082F31088EA034FEA14238A
S315000004F0E4B219D41B01164A234442F82350EFF301
S315000005001082012383F310880B6813B10B68013B3B
S315000005100B600B681BB980200C49CB70C87082F346
S315000005201088002004B070BD094A04EB031052F88D
S3150000053020601B016FF3104642F8206025F48036D8
S3150000054042F82060D7E700BF8C000020000D08406D
S3150000055000080840064B074993F826001A6A51F826
S315000005602030C2F302620449D3400B60704700BFDB
S3150000057000E001400800002098000020F8B54AF28B
S31500000580035001233649374AA1F8FE03A2F8043185
S31500000590B2F804319BB2002BFAD101214FF4004589
S315000005A04FF0090C304C314F2D486760304F314EBB
S315000005B0E760314F6761A2F8001190F826202660A7
S315000005C0A5602561056A54F82220C5F30265EA4054
S315000005D02A4D2A6080F8133480F8A2C090F880343F
S315000005E0002B36D000231E4981F8813481F88034EF
S315000005F081F8323091F83C301A07FBD543F20210ED
S315000006000023174A088581F82A3092F83C309B0669
S31500000610FBD50120052313494FF0F10C81F81C018D
S315000006201749116282F8263092F82630106A54F87B
S315000006302310C0F30260C14000242960F0204FF46B
S315000006402541104B83F80CC01C721873A2F8FE13D8
S31500000650F8BD80F8801440F2C44000F04DF8C1E7C0
S3150000066000E0014000C001400800002000127A00AE
S3150000067000366E01002D310100C2EB0B9800002000
S31500000680211202210020004038B50025134C01211B
S31500000690C82084F8285000F02FF884F8245094F8E5
S315000006A02430002BFBD194F824300C4A43F002038B
S315000006B084F8243092F82430C3F340049B07F9D41D
S315000006C0012082F8224000F0E7F8054B012083F86C
S315000006D0BB44BDE8384000F0AFB800BF003008406A
S315000006E000E00140704700BF00BEFEE7A0F1010038
S315000006F00028FBD1704700BF10B54FF47A72164C34
S31500000700164B24684FF0000EB3FBF4FC4FF0FF339A
S3150000071000FB01F1A1FB020483427EEB040407D334
S31500000720B0FBFCF0800880B1BDE81040FFF7DEBFEB
S315000007304FEA8C0CB1FBFCF1A1FB02128B427EEB63
S31500000740020203D308460028EED110BD1846BDE8C4
S315000007501040FFF7CBBF00BF9800002000CA9A3BAD
S3150000076070B500240A4B0B4EB3F84051ADB225FAD2
S3150000077004F3DB07E0B203D556F8243003B19847FB
S315000007800134102CF3D1024BA3F8305170BD00BFD9
S31500000790006000404C00002030B56FF0FF0585B0CA
S315000007A0032000F079F84FF0FF311F4C1F48224616
S315000007B0856400230125CDE90111039104F1C00EE2
S315000007C032F8020F590960B104A800EB810151F813
S315000007D00C0C03F01F0C05FA0CFC20EA0C0041F887
S315000007E00C0C724503F10103EAD10199104B0F4A33
S315000007F003201167C3F8801202995167C3F8841267
S3150000080003999167C3F8881200F016F80023094887
S3150000081003F1C00234F8021F0133602B40F82210A6
S31500000820F6D105B030BD00BF120B000000800040BD
S3150000083000E100E000600040EFF31081012383F344
S315000008401088124B33F8102092B22AB133F81020D8
S31500000850013A92B223F8102033F810309BB293B9C4
S315000008600B4A10B4B2F8FE330A4C9BB234F81000AF
S3150000087043F4254323EA0003A2F8FE3381F31088EC
S315000008805DF8044B704781F3108870479000002094
S3150000089000E00140D40B000030B4EFF310810123D7
S315000008A083F310880E4A32F810309BB26BB90D4CA8
S315000008B00D4DB4F8FE3335F810C09BB243EA0C0375
S315000008C043F425439BB2A4F8FE3332F810300133CB
S315000008D09BB222F8103081F3108830BC704700BFFD
S315000008E09000002000E00140D40B000000BE7047DD
S315000008F008B500F003F8FFF753FCFEE74FF470026B
S3150000090070B5254B254CC3F8882000209C60FFF766
S315000009103BFCFFF733FE0120FFF736FC2368A3F507
S31500000920806383F30A881E481E4A0021121A00F0CB
S3150000093054F81D481D4A1E49121A00F041F81D4D73
S315000009401D4B5B1B002B07DD00249E1055F8043B56
S3150000095001349847A642F9DCFFF7FCFDFFF794FE49
S315000009600320FFF799FF00234FF6FF70134903F1A9
S3150000097008020133092B21F81200F8D10320FFF7F2
S315000009805BFF0220FFF700FCFFF706FFBDE87040A3
S315000009900020FFF7A7BE00BF00ED00E0000000004A
S315000009A0280000209C0000200000002008000020F5
S315000009B0E00B00000000002004000020000D0840AD
S315000009C00A44431E914200D1704710B511F8014BFD
S315000009D0914203F8014FF9D110BD024403469342F8
S315000009E000D1704703F8011BF9E7FFFF4275696CF8
S315000009F07420776974682052656E6573617320414F
S31500000A006476616E63656420466C657869626C65C0
S31500000A1020536F667477617265205061636B6167FE
S31500000A20652076657273696F6E20342E332E300022
S31500000A30342E332E3000000000000304F8B500BF4A
S31500000A40F8BC08BC9E467047F8B500BFF8BC08BCA9
S31500000A509E467047737461747573203D3D204653FE
S31500000A60505F535543434553530000002E2E2F73BA
S31500000A7072632F68616C5F656E7472792E6300FF16
S31500000A8068616C5F656E74727900FFFF4400002038
S31500000A90980A0000D80A000007000000A00A00001B
S31500000AA0000001000801000000000100090100002B
S31500000AB0000001000A010000000001000003000020
S31500000AC00500000004040000050000000504000005
S31500000AD0050000000F0400008D040000AD010000B9
S31500000AE0A1040000AD04000071020000C502000070
S31500000AF0B90100000D0200002D020000590200009D
S31500000B00A9020000DD010000F10100000204030457
S31500000B100404FFFF000000000000000000000000C9
S31500000B2000000000000000000000000000000000BF
S31500000B3000000000000000000000000000000000AF
S31500000B40000000000000000000000000000000009F
S31500000B50000000000000000000000000000000008F
S31500000B60000000000000000000000000000000007F
S31500000B70000000000000000000000000000000006F
S31500000B80000000000000000000000000000000005F
S31500000B90000000000000000000000000000000004F
S31500000BA0000000000000000000000000000000003F
S31500000BB0000000000000000000000000000000002F
S31500000BC0000000000000000000000000000000001F
S31500000BD000000000010002000800100000000000F4
S30D00000BE0A500000081000000E1
S3150100A100FFFFFFFFFFFFFFFFFFFFFFFFFFFFFFFF58
S3150100A110FFFFFFFFFFFFFFFFFFFFFFFFFFFFFFFF48
S3150100A120FFFFFFFFFFFFFFFFFFFFFFFFFFFFFFFF38
S30D0100A130FFFFFFFFFFFFFFFF28
S3150100A200FFFDFFFFFFFFFFFFFFFFFFFFFFFFFFFF59
S3150100A210FFFFFFFFFFFFFFFFFFFFFFFFFFFFFFFF47
S3150100A220FFFFFFFFFFFFFFFFFFFFFFFFFFFFFFFF37
S3150100A230FFFFFFFFFFFFFFFFFFFFFFFFFFFFFFFF27
S3150100A240FEFFFFFFFFFFFFFFFFFFFFFFFFFFFFFF18
S3150100A250FFFFFFFFFFFFFFFFFFFFFFFFFFFFFFFF07
S3150100A260FFFFFFFFFFFFFFFFFFFFFFFFFFFFFFFFF7
S3150100A270FFFFFFFFFFFFFFFFFFFFFFFFFFFFFFFFE7
S3150100A280F8F8FFFFFFFFFFFFFFFFFFFFFFFFFFFFE5
S3150100A290FFFFFFFFFFFFFFFFFFFFFFFFFFFFFFFFC7
S3150100A2A0FFFFFFFFFFFFFFFFFFFFFFFFFFFFFFFFB7
S3150100A2B0FFFFFFFFFFFFFFFFFFFFFFFFFFFFFFFFA7
S3110100A2C0FEFFFFFFFFFFFFFFFFFFFFFF98
S705000008F101
